:020000040800F2
:10000000800C0020450100086F210008E31E000855
:100010006D21000851050008B92700080000000004
:10002000000000000000000000000000A9210008FE
:10003000BD06000800000000912100086D220008A4
:100040005F0100085F0100085F0100085F01000810
:100050005F0100085F0100085F0100085F01000800
:100060005F0100085F0100085F0100085F010008F0
:100070005F0100085F0100085F0100085F010008E0
:100080005F0100085F0100085F0100085F010008D0
:100090005F0100085F0100085F0100085F010008C0
:1000A0005F0100085F0100085F0100085F010008B0
:1000B0005F0100083D2300085F0100085F010008A0
:1000C0005F0100085F0100085F0100085F01000890
:1000D0005F0100085F0100085F0100085F01000880
:1000E0005F0100085F0100085F0100085F01000870
:1000F0005F0100085F0100085F0100085F01000860
:100100005F0100085F0100085F0100085F0100084F
:100110005F0100085F0100085F0100085F0100083F
:100120005F0100085F0100085F0100085F0100082F
:10013000DFF80CD000F024F900480047912C0008AB
:10014000800C00200648804706480047FEE7FEE78F
:10015000FEE7FEE7FEE7FEE7FEE7FEE7FEE7FEE777
:10016000F522000831010008D2B201E000F8012BAD
:10017000491EFBD270470022F6E710B513460A4627
:1001800004461946FFF7F0FF204610BDF0B480EAA0
:100190000102D40F4200B2EB410F02D202460846E0
:1001A00011464A0042D0C30DDDB2C1F3C752AD1AA9
:1001B000202D35DAC1F3160141F4000204B1524298
:1001C000C5F1200602FA06F12A411044B3EBD05FD4
:1001D00023D0C4B1012DA0EBC35009DCF0BC4FF01B
:1001E000004202EAC352DBB200F5000000F099B809
:1001F000400000F1807000EBC350A0F1807040EA35
:10020000D170490009E0490841EAC071A0EBC35030
:1002100000F50000400800EBC350F0BC00F078B8D7
:100220006142012202EB4101001BF6E7F0BC70477E
:1002300081F00041AAE780F00040A7E780EA0102D0
:1002400010B502F00043400022D04A001FD0010E3A
:1002500001EB1261C0F35600C2F3560240F40000F5
:1002600042F40002A0FB022000047F39140400D0F5
:10027000401C50EA124001D44000491EC2B20C0694
:1002800004EBD010401C4008802A02D003E000207C
:1002900010BD20F00100002900DA0020184310BD35
:1002A000C10F80EAE0700844CA079623002100F0DD
:1002B00038B800F0004220F00040C10DC0F3160035
:1002C00040F400007F2901DA00207047962903DC02
:1002D000C1F19601C84001E096398840002AF4D067
:1002E0004042704730B50B460146002020220124D1
:1002F00009E021FA02F59D4205D303FA02F5491BF4
:1003000004FA02F52844151EA2F10102F1DC30BD09
:100310000029A8BF7047401C490008BF20F0010019
:10032000704710B4B0FA80FC00FA0CF050EA0104F7
:1003300004BF10BC704749B1CCF1200421FA04F489
:1003400011FA0CF118BF012121430843A3EB0C0162
:10035000CB1D4FEA00614FEA102042BF002010BCC5
:10036000704700EBC35010440029A4BF10BC704775
:10037000401C490008BF20F0010010BC704700007D
:10038000064C074D06E0E06840F0010394E80700E2
:1003900098471034AC42F6D3FFF7CEFEC02D0008CC
:1003A000E02D000870B5044600688168C943C9079C
:1003B0001CD1816821F00101816000F03DFD0546FE
:1003C0000FE000BF00F038FD401B022809D9A06AE9
:1003D00040F01000A062E06A40F00100E0620120FD
:1003E00070BD20688068C043C007EBD0002070BD9E
:1003F000F8B500260446009600688168C943C9071D
:1004000028D0816841F001018160134813490068D8
:10041000B0FBF1F000E0401E00900028FBD100F09E
:100420000BFD054611E000BF00F006FD401B022851
:100430000BD9A06A40F01000A062E06A40F0010011
:10044000E06284F824600120F8BD20688068C04321
:10045000C007E9D10020F8BD0C00002040420F0089
:1004600010B5002110A001F0A1FE104C0021607019
:100470000FA001F09BFE6070002110A001F096FE1D
:10048000002112A001F092FE022116A001F08EFEC2
:10049000322301222146234801F0C6FC4FF47A7032
:1004A00000F0BAFB002010BD41540A008200002079
:1004B00041542B434D47463D310A000041542B43E4
:1004C0005343533D2247534D220A000041542B43CE
:1004D0004D47533D223138343230303136363334A3
:1004E000220A00005369722C796F75206D617920A2
:1004F000686176652061206669726520696E207981
:100500006F757220686F6D652E706C656173652004
:10051000676F20686F6D652068757272792E200A8A
:1005200000000000B001002070B504464FF4806563
:10053000064E08E02946304600F074FC322000F0F8
:100540006BFB641EE4B2002CF4D170BD000C0140C2
:10055000FEE7000030B516480024016821F4704120
:100560000160016841F400410160124D04E0641C27
:10057000E4B2012002F036FBD5F82C0110B1642C56
:10058000F5D30DE0642C0BD2002404E0641CE4B22B
:10059000012002F027FBD5F82C0118B1642C04D3FC
:1005A000012030BD642CF1D3FAE7002030BD0000FB
:1005B000040C01400080214210B500F061F8BDE854
:1005C0001040FFF7C7BF000030B50024104D04E015
:1005D000641CE4B2012002F005FBD5F82C0108B13F
:1005E000642CF5D3002404E0641CE4B2012002F082
:1005F000F9FAD5F82C0108B9642CF5D3282002F0BB
:10060000F1FAD5F82C01002800D0012030BD0000FF
:100610000080214230B5002004464006050EFFF759
:10062000D3FF641C2843E4B2082CF6D330BD2DE977
:10063000FC410D46064600F023F8FFF78BFF10B192
:100640000120BDE8FC8100246F46FFF7E3FF385529
:10065000641CE4B2052CF8D39DF800109DF801004D
:100660009DF803300A189DF8020003441A449DF8CF
:1006700004309A4201D1297030700020E1E7000077
:100680000C4810B5016821F470410160016841F423
:1006900040510160084C0020C4F8AC01142004F55E
:1006A000D67400F0B9FA01202060BDE810401E2089
:1006B00002F098BA040C014000802142704700000B
:1006C00070B51424012521462E48FFF754FDC82398
:1006D00014222C492C4801F04BFB2A4801780D29A3
:1006E00036D141780A2933D1817A532930D1C17A60
:1006F0004D292DD1C27B25490D2A1DD0807B02F0CA
:100700000F0200F00F0000EB800002EB4000887049
:10071000C1B21FA002F092F91A494FF47A73642211
:100720001431194801F024FB002811D01548143069
:10073000015D0D2904D007E0807B00F00F00E6E7A3
:10074000011949780A2904D0641CE4B2002DEFD1C4
:1007500070BD2044124A81786F2907D06E29F7D1E5
:10076000C0786F28F4D10020107070BDC178702956
:10077000FBD101796529F8D140796E28F5D10120A6
:10078000F2E700000E020020B001002082000020ED
:1007900041542B434D47523D25640D0A0000000093
:1007A0003B000020F8B50024009490F82420254652
:1007B000012A12D0012280F824204A681F23072A28
:1007C0000DD20668776B521E02EB820293409F4364
:1007D0000B6893401F43776319E00220F8BD066859
:1007E0000D2A0AD2376BD21F02EB820293409F433D
:1007F0000B6893401F43376309E0F76A0D3A02EB39
:10080000820293409F430B6893401F43F7620A683C
:10081000072306680A2A0AD3F7680A3A02EB42025B
:1008200093409F438B6893401F43F76008E037690C
:1008300002EB420293409F438B6893401F43376112
:100840000A68102A01D0112A20D1124B02689A425C
:1008500017D193681B0219D4936843F40003936083
:100860000968102912D10C490C4A0968B1FBF2F150
:1008700001EB8101490000E0491E00910029FBD1F4
:1008800004E0816A41F020018162012480F8245053
:100890002046F8BD002401400C00002040420F001B
:1008A000806A70470068C06C704700002DE9F04115
:1008B00004004FF000057FD0A06A002628B9E66248
:1008C00084F82460204600F081F82046FFF76AFD96
:1008D000A16AC90600D420B1A06A40F01000A0624D
:1008E0006AE0A16A21F4885141F00201A162334912
:1008F00023688B42E16904D1B1F5402F01D14FF457
:100900000021E7684FF4807C41EA470261680A43AE
:10091000A168614508D0012906D00021D4F814E06F
:10092000BEF1010F02D00AE06146F7E7C7B1A76A3E
:1009300047F02007A762E76A47F00107E7625F68B0
:1009400027F469470F435F60236899681C4F39405B
:1009500011439960A16861450BD0012909D00CE0D1
:10096000DFF860E0A7690EEB47370F4347F40061FB
:10097000E5E7218A0D05A5F580152168CB6A23F4EA
:1009800070032B43CB62216889680F4B1940914259
:1009900008D1E662A16A21F0020141F00101A162E1
:1009A000BDE8F081A06A20F0020040F01000A062D3
:1009B000E06A40F00100E0620120F1E7003C014004
:1009C000FDF7E1FF00E0FFFFFE0E1FFF10B5124C28
:1009D000036812490322124886B0A34209D18B69E9
:1009E00043F400738B61896901F400710491012162
:1009F0000BE00C4CA3420DD18B6943F480638B61F7
:100A0000896901F4806104910221CDE900126946EF
:100A100000F014F906B010BD00240140001002409F
:100A2000000C0140002801402DE9F84300260D4646
:100A30000446009600F000FA804620688168C905E7
:100A400008D5A06A40F02000A06284F8246001204C
:100A5000BDE8F8834168C90503D4C06A10F4700F7B
:100A600026D0022000F0AEFA38490968B1FBF0F751
:100A70002068036936490B424FEA61014FEAA1122F
:100A80001BD1C3684FEA611C13EA0C0F15D103692F
:100A90000B4221D1C06810421ED114201FE0681CF7
:100AA00006D045B300F0C8F9A0EB0800A84222D850
:100AB000206800688007F2D52AE003690B4202D162
:100AC000C168114206D0026922490A4206D1C068B3
:100AD000084203D1542002E0292000E0FC204743D3
:100AE000009813E0681C0ED02DB100F0A5F9A0EB22
:100AF0000800A84207D9A06A40F00400A06284F868
:100B000024600320A4E70098401C0090B842E9D379
:100B100021686FF012000860A06A40F40070A062C3
:100B200020688068C0F3424007280CD1E06850B9C3
:100B3000A06A20F48070A062A06AC00403D4A06AF6
:100B400040F00100A062002082E700000C000020BD
:100B5000244992244992240070B5044690F8240058
:100B600001280DD0012084F824002046FFF740FC26
:100B700002004FF0000005D084F82400104670BD3C
:100B8000022070BDA16A40F20123994341F48071B3
:100B9000A1621F4D23681F49AB4218D10E6816F49D
:100BA000702F14D0A66A46F48016A6620E687605E9
:100BB00005D5A66A26F4005646F48056A662A66AB3
:100BC000F6040AD5E66A26F00606E66206E0A66A9C
:100BD00026F48016A6625E68E9E7E06284F82400E5
:100BE0006FF00200186020688368C3F34243072B4C
:100BF00005D1A84208D1096811F4702F04D081688A
:100C000041F480118160B9E7816841F4A001F9E7FE
:100C1000002801400424014070B5044600F00CF99E
:100C20000546601C02D004480078044400F004F932
:100C3000401BA042FAD370BD000000202DE9F84F00
:100C4000DFF8B8A100220AF1040B144601274FF087
:100C50000F090BF1040E00BF0B6807FA04F52B40D7
:100C6000AB4274D1DFF898C14E68A6EB0C0866451C
:100C70002BD00DDC032E34D005DC36B3012E19D079
:100C8000022E2FD11BE0112E16D0122E2AD119E0E0
:100C9000B8F5881F19D006DCB8F5803F15D0B8F537
:100CA000801F1FD111E0B8F5001F0ED0B8F5041F4A
:100CB00018D10AE0CA6815E0CA68121D12E0CA68B5
:100CC00008320FE0CA680C320CE08A682AB1012AA7
:100CD0004FF0080203D0456104E0042202E0056100
:100CE00000E00022FF2B01D8064601E000F10406D7
:100CF0004FEA840501D9A5F12005D6F800C009FA0C
:100D000005F82CEA080C02FA05F54CEA050CC6F8C1
:100D100000C04D68ED006AD53A4DAE6946F0010657
:100D2000AE61AD6924F0030605F001050095364D6E
:100D300006EB050CDCF80850A6074FEA167809FA0E
:100D400008F6B543314EB04202D100261AE04EE01B
:100D50002F4EB04201D1012614E02E4EB04201D1F7
:100D600002260FE02C4EB04201D103260AE02B4EA2
:100D7000B04201D1042605E0294EB04201D105263A
:100D800000E0062606FA08F62E43CCF808604D6807
:100D9000DAF80060ED03554601D51E4300E09E439E
:100DA0002E604D68AD0305D5DBF800601E43CBF81F
:100DB000006004E0DBF800509D43CBF800504D6824
:100DC000DEF80060ED02754601D51E4300E09E434B
:100DD0002E604D68AD0205D5084D0C352E681E43BA
:100DE0002E6004E0054E0C3635689D433560641C6A
:100DF000102CFFF431AFBDE8F88F00000004014073
:100E000000001110001002400000014000080140E5
:100E1000000C014000100140001401400018014086
:100E2000001C0140C2684A40C26070470AB10161BB
:100E300070470904FBE70000014880687047000024
:100E400000000020024881680278114481607047E8
:100E500000000020074810B5016841F01001016052
:100E6000032000F09DF8002000F006F800F024F8C0
:100E7000002010BD0020024070B50D4D04464FF417
:100E80007A712878B1FBF0F00A490968B1FBF0F0FB
:100E900000F00DFC48B9102C07D200222146501E4C
:100EA00000F05EF800206C6070BD012070BD000095
:100EB000000000200C000020214808B5816941F0A5
:100EC00001018161816901F001010091C16941F075
:100ED0008051C161C06900F080500090032000F093
:100EE0005FF8002211466FF00B0000F039F8002285
:100EF00011466FF00A0000F033F8002211466FF03F
:100F0000090000F02DF800221146501F00F028F8CB
:100F100000221146101F00F023F800221146901EF7
:100F200000F01EF800221146501E00F019F8054886
:100F3000416821F0E06141F00071416008BD0000AE
:100F4000001002400000014000F01F02012191400A
:100F50004009800000F1E020C0F800117047000057
:100F6000F0B40E4B1B680C46C3F30223C3F1070514
:100F7000042D00D90425191D072901D2002300E002
:100F8000DB1E012606FA05F1491E214099409E40CC
:100F9000761E16403143F0BC01F0EAB80CED00E0DB
:100FA000064900F0070208684FF6FF03184040EAC0
:100FB0000220034A10430860704700000CED00E077
:100FC0000000FA0510B52CA401461DCC86B08DE8B2
:100FD0001D002DA02D4C00680490002004292FD066
:100FE0000BDC01292FD0022928D100F08BF9616890
:100FF000C1F38131491C49001EE0082920D0102985
:101000001CD161682268D20118D5C1F38342C9039B
:101010001DF8020009D5616804AAC1F34041515C82
:101020001B4AB2FBF1F1484301E01A4948436168A9
:10103000490203D440000321B0FBF1F006B010BD1B
:1010400000F070F9FAE7226AC2F30121012903D105
:10105000920701D5C803F1E7022905D1626A920718
:1010600002D549F64040E9E70329E7D12168890321
:10107000E4D54FF22440E1E702030405060708091E
:101080000A0B0C0D0E0F10100102000000100240A0
:1010900000127A0000093D002DE9F843054600786A
:1010A000354CC00754D0E0690026C00008D4E06980
:1010B00040F08050E061E069012600F0805000902F
:1010C0002E480168C90512D40168804641F4807138
:1010D0000160FFF7B1FE074605E000BFFFF7ACFE79
:1010E000C01B642823D8D8F80000C005F6D5206AB4
:1010F00010F4407021D0A98801F4407181421CD0C5
:10110000206A1F49012220F440700A6000220A6010
:101110002062C00711D0FFF78FFE074641F28838E2
:1011200008E000BFFFF788FEC11B414502D903203C
:10113000BDE8F883206A8007F4D5206A696820F446
:101140004070084320621EB1E06920F08050E061E9
:101150002878800705D56068A96820F440400843D6
:1011600060602878C00605D56068696920F4800051
:10117000084360600020DBE7001002400070004080
:10118000400442422DE9F047DFF83C8105460E4617
:10119000D8F8000000F00700B0420CD2D8F80010D8
:1011A00021F007013143C8F80010D8F8000000F022
:1011B0000700B04263D12878444C800705D56068A9
:1011C000A96820F0F000084360602878C00745D087
:1011D0006868012816D02168022816D089070029DE
:1011E0004DDA616821F0030101436160FFF724FEDD
:1011F0006968074641F2883001290FD002298146EB
:1012000019D027E021688903E9E78901E7E700BFF2
:10121000FFF712FEC11B494501D918E081466068FD
:10122000C0F381000128F3D118E000BFFFF704FEEE
:10123000C11B49450BD86068C0F381000228F5D175
:101240000CE000BFFFF7F8FDC11B494502D90320A0
:10125000BDE8F087606810F00C0FF3D1D8F80010EB
:10126000404601F00701B1420BD9016821F00701A6
:1012700031430160006800F00700B04201D0012056
:10128000E6E72878400705D56068E96820F4E06063
:10129000084360602878000706D56068296920F453
:1012A000605040EAC100606000F03CF86168084AA4
:1012B000C1F30311515CC840064908600020FFF7E4
:1012C000DBFD0020C4E700000020024000100240C7
:1012D0005E2D00080C0000200148006870470000E7
:1012E0000C0000200448054900684968044AC1F31D
:1012F0000221515CC84070470C00002000100240E1
:101300006E2D00080448054900684968044AC1F385
:10131000C221515CC84070470C0000200010024000
:101320006E2D000812A185B00FC98DE80F0014A022
:10133000144A006804905168134801F00C03042B10
:1013400010D0082B0ED1C1F38343C9031DF803004D
:101350000AD5516804AAC1F34041515C0A4A50437E
:10136000B0FBF1F005B0704708494843FAE70000C8
:1013700002030405060708090A0B0C0D0E0F1010D6
:10138000010200000010024000127A0000093D0036
:101390002DE9F84F04460078B94DC00748D0686879
:1013A000C0F38100012807D06868C0F381000228DB
:1013B00009D16868C00306D52868800338D56068FD
:1013C00000286FD034E06068B0F5803F0BD010B1DA
:1013D000B0F5A02F11D0286820F48030286028684C
:1013E00020F4802002E0286840F4803028606068A3
:1013F00088B1FFF721FD064609E0286840F4802007
:101400002860F0E7FFF718FD801B642875D828686E
:101410008003F7D50CE0FFF70FFD064605E000BF9F
:10142000FFF70AFD801B6428F0D828688003F7D4F2
:101430002078944E80074FF001094FF000083BD50B
:10144000686810F00C0F07D06868C0F381000228AC
:1014500009D16868C00306D42868800714D52069BC
:1014600001281FD110E02069B0B1C6F80090FFF745
:10147000E3FC074605E000BFFFF7DEFCC01B0228C7
:10148000C4D828688007F7D52868616920F0F8007B
:1014900040EAC10028600FE0C6F80080FFF7CCFCEE
:1014A000074606E0E9E000BFFFF7C6FCC01B0228C4
:1014B00023D828688007F7D4207800072CD57248F5
:1014C000A169D9B1C0F80090FFF7B6FC074604E067
:1014D000FFF7B2FCC01B02280FD8686A8007F7D557
:1014E0006A484FF4FA510068B0FBF1F0009000BF79
:1014F0000098411E0091FAD20EE080E0C0F8008012
:10150000FFF79AFC074604E0FFF796FCC01B022891
:1015100075D8686A8007F7D42078400760D5E869F5
:101520000027C00008D4E86940F08050E861E8690D
:10153000012700F08050009055480168C90513D478
:101540000168834641F480710160FFF775FC8246B3
:1015500006E000BFFFF770FCA0EB0A0064284ED83D
:10156000DBF80000C005F5D5E06801280AD008B115
:10157000052813D0286A20F001002862286A20F08C
:10158000040002E0286A40F001002862E06841F2AD
:10159000883B98B1FFF750FC82460BE0286A40F088
:1015A00004002862EEE700BFFFF746FCA0EB0A014B
:1015B00059455AD8286A8007F6D50CE0FFF73CFC5D
:1015C000824605E0FFF738FCA0EB0A0159454CD8EC
:1015D000286A8007F6D41FB1E86920F08050E861DE
:1015E000E06988B36968C1F38101022945D0022806
:1015F000C6F8608004D0FFF71FFC044638E034E0F2
:10160000FFF71AFC074604E0FFF716FCC01B022890
:101610002BD828688001F7D4206AB0F5803F05D127
:101620006868A16820F4003008436860D4E90801C4
:101630000843696821F4741108436860C6F8609033
:10164000FFF7FAFB044606E015E000BFFFF7F4FBE6
:10165000001B022809D828688001F7D50BE000BFDD
:10166000FFF7EAFB001B022802D90320BDE8F88F30
:1016700028688001F4D40020F8E70120F6E7000094
:101680000010024000004242800442420C00002050
:10169000007000404FF0E0210428086903D020F0DA
:1016A00004000861704740F00400FAE7704710B585
:1016B000401EB0F1807F01D3012010BD4FF0E02427
:1016C00060610F21601700F053FD0020A06107202A
:1016D0002061002010BD10B5FFF7E8FF10BD704776
:1016E000704730B590F83C20012A20D0012280F8C4
:1016F0003C20022380F83D3003685C6824F07004CD
:101700005C6003685C680D682C435C6003689C68DF
:1017100024F080049C6003689C6849680C439C60CA
:1017200080F83D20002180F83C10084630BD0220A2
:1017300030BD10B5040003D094F83D0010B107E0AF
:10174000012010BD002084F83C00204600F00CF879
:10175000022084F83D00211D206800F0F9FD0120E1
:1017600084F83D00002010BD08B501681048B1F1B3
:10177000804F14D00F4A914219D1C16941F0020142
:10178000C161C069002200F00200009011461D20D6
:10179000FFF7E6FBBDE808401D20FFF7D5BBC16998
:1017A00041F00101C161C06900F00100009008BD75
:1017B00000100240000400400168CA6842F00102C3
:1017C000CA600068016841F00101016000207047B3
:1017D00070B5044690F83C00012817D0012584F824
:1017E0003C50022084F83D002068826822F0770295
:1017F00022F47F4282600868502837D00DDC202810
:1018000059D005DC88B3102841D151E0022070BDC9
:10181000302853D040283AD13FE060282ED070289D
:101820000BD0B0F5805F03D0B0F5005F2FD110E092
:101830002068816821F0070115E0CB68D1E901211A
:10184000206800F0D6FD2168886840F07700886045
:101850001DE0CB68D1E90121206800F0CAFD2068B5
:10186000816841F48041816011E01EE0CA684968E6
:10187000206800F093FE5021206806E0CA6849689D
:10188000206800F09CFE6021206800F0BCFD84F818
:101890003D50002084F83C0070BDCA68496820684B
:1018A00000F07CFE40212068EFE700212068ECE793
:1018B00010212068E9E720212068E6E73021206830
:1018C000E3E72DE9F0410D46040003D094F83D0014
:1018D00018B108E00120BDE8F081002084F83C0048
:1018E000204600F039F8022084F83D002068816825
:1018F00021F007018160211D206800F029FD226888
:1019000090689169166A2B68AF69034340F203300F
:10191000814341EA0721A868EF6908434FF6FC417B
:101920008843E96840EA0720014328692F6A0001DB
:1019300040EA0730084369686D6926F0AA0646EA5E
:101940000515294393602268906120680162012097
:1019500084F83D000020BEE700B500680C4985B062
:10196000884213D10B48816941F40061816180692B
:10197000694600F4006004904FF44070009000202D
:101980000190012002900448FFF758F905B000BD0E
:10199000002C0140001002400008014010B5044630
:1019A000006891B1042904D00122002100F016FD45
:1019B000206801225FF0040100F010FD206801683A
:1019C00041F001010160002010BD01220021F3E778
:1019D000704770B50446006801694FF00005C943BF
:1019E000890715D4C168C943890711D4E91E01616B
:1019F00001202077206880698007204602D0FFF709
:101A0000E7FF04E000F0AAF8204600F02CF9257763
:101A100020680169C943490717D4C168C943490708
:101A200013D46FF0040101610220207720688069DF
:101A300010F4407F204602D0FFF7CAFF04E000F018
:101A40008DF8204600F00FF9257720680169C94319
:101A5000090716D4C168C943090712D46FF00801F9
:101A60000161042020772068C0698007204602D0E9
:101A7000FFF7AEFF04E000F071F8204600F0F3F845
:101A8000257720680169C943C90617D4C168C943CD
:101A9000C90613D46FF01001016108202077206877
:101AA000C06910F4407F204602D0FFF791FF04E0A8
:101AB00000F054F8204600F0D6F825772068016938
:101AC000C943C90708D1C168C943C90704D1891EE0
:101AD0000161204600F0E4F820680169C943090665
:101AE00009D4C168C943090605D46FF080010161BA
:101AF0002046FFF7F4FD20680169C943490609D46F
:101B0000C168C943490605D46FF040010161204610
:101B100000F0C7F820680169C94389060BD4C16881
:101B2000C943890607D46FF0200101612046BDE852
:101B30007040FFF7D5BD70BD1FB50068B0F1804F94
:101B400008D10120009002200190039069460248CC
:101B5000FFF774F81FBD000000080140704770B522
:101B6000044690F83C000D4601280DD0012684F86B
:101B70003C60022084F83D0042B1042A18D0082AB3
:101B80002AD00C2A4DD139E0022070BD206800F027
:101B900043FC2068816941F0080181612068816906
:101BA00021F004018161206881692A69114311E0F3
:101BB000206800F061FC2068816941F40061816166
:101BC0002068816921F480618161206881692A69C6
:101BD00041EA0221816124E0206800F083FC206852
:101BE000C16941F00801C1612068C16921F00401A7
:101BF000C1612068C1692A69114311E0206800F0C1
:101C0000A5FC2068C16941F40061C1612068C16917
:101C100021F48061C1612068C1692A6941EA022119
:101C2000C16184F83D60002084F83C0070BD10B5AF
:101C3000040003D094F83D0010B107E0012010BD6E
:101C4000002084F83C00204600F00CF8022084F8C4
:101C50003D00211D206800F07BFB012084F83D0041
:101C6000002010BD7047704710B50446006801227F
:101C700000F0B4FB08492068884202D00749884236
:101C800003D1416C41F4004141642068016841F096
:101C900001010160002010BD002C01400034014012
:101CA0007047704770B5040004D094F839000025DF
:101CB00010B106E0012070BD84F83850204600F0D5
:101CC00023F8242084F839002068C16821F40051E9
:101CD000C160204600F086FC2068016921F4904133
:101CE00001612068416921F02A0141612068C168D1
:101CF00041F40051C160E563202084F8390084F884
:101D00003A00002070BD000010B50068144986B08C
:101D1000884223D11348816941F4804181618069FF
:101D2000114C00F48040049040200090022001906B
:101D30000320039069462046FEF780FF00218020A3
:101D4000CDE90001029169462046FEF777FF07487A
:101D5000416841F0E06141F00401416006B010BD0E
:101D60000038014000100240000C0140000001401A
:101D70002DE9F843044690F83A00994616460D4678
:101D800020284FD195B18EB194F83800012849D060
:101D9000012084F838000027E763222084F83A0005
:101DA000FFF74AF8A6858046E68531E00120BDE8C8
:101DB000F883E08D401EE085A0684346B0F5805F63
:101DC0004FF000024FF020012046CDF8009004D0E3
:101DD00000F0C0FC98B10320E9E700F0BBFC00284C
:101DE000F9D1206900282068406803D0C1B225F8E5
:101DF000011B0DE0C0F3080125F8021B08E0206973
:101E000000282068406801D000F07F0005F8010B31
:101E1000E08D0028CDD1202084F83A0084F8387075
:101E20000020C4E70220C2E72DE9F843044690F8F9
:101E300039001F4616460D46202850D1A5B19EB147
:101E400094F8380001284AD0012084F838004FF077
:101E50000008C4F83C80212084F83900FEF7ECFF2C
:101E6000A6848146E68426E00120BDE8F883E08C64
:101E7000401EE084A0684B46B0F5805F4FF0000242
:101E80004FF080012046009703D000F063FCE8B9D2
:101E90000DE000F05FFCC8B928882168C0F3080095
:101EA0004860206908B16D1C05E0AD1C03E02168A5
:101EB00015F8010B4860E08C0028D8D14B46002271
:101EC00040212046009700F045FC08B10320CCE7F4
:101ED000202084F8390084F838800020C5E70220EB
:101EE000C3E7FEE73EB50F4800240D498460C46097
:101EF00044610160012505614FF460214460C161C6
:101F0000FEF7D4FC00B1FEE70820CDE900056946E4
:101F100002940448FEF746FC002800D0FEE73EBDD0
:101F200000240140900000203EB50F4800240D49D8
:101F30008460C46044610160012505614FF4602143
:101F40004460C161FEF7B2FC00B1FEE70920CDE9B3
:101F50000005694602940448FEF724FC002800D0DE
:101F6000FEE73EBD00280140C00000202DE9F047FB
:101F70002F4886B0816941F020018161816901F0BB
:101F800020010491816941F004018161816901F0BE
:101F900004010491816941F0080181618069DFF8E1
:101FA000948000F008000490012208214046FEF7CA
:101FB0003DFFDFF884904FF45056002231464846EA
:101FC000FEF734FF0122D70239464846FEF72EFFBE
:101FD000DFF868A0002204215046FEF727FF012405
:101FE0000820CDE90004022569464046CDE90245B6
:101FF000FEF724FECDE900640026CDE902656946BE
:102000004846FEF71BFE0320CDE90260CDE90074CF
:1020100069464846FEF712FE042003958DE85100FC
:1020200069465046FEF70AFE06B0BDE8F08700009C
:102030000010024000080140000C01400014014063
:1020400010B515488CB013490024C0E900144FF4B2
:10205000D771C0E902410461446184610320CDE984
:1020600000040120CDE902040494CDE90540079461
:10207000694609480894FFF724FC00B1FEE709947B
:1020800009A905480A94FFF72CFB002800D0FEE7B9
:102090000CB010BD002C0140F000002010B51C4811
:1020A0008EB04FF0804101608F210024C0E90114FF
:1020B00042F20F71C0E903148461FFF73AFB00B1EB
:1020C000FEE74FF48050079007A91148FFF780FB07
:1020D00000B1FEE70E48FFF7AAFD00B1FEE70B9442
:1020E0000BA90B480C94FFF7FCFA00B1FEE7602047
:1020F000CDE9000402940022694605480494FFF7E4
:102100002EFD00B1FEE70248FFF716FD0EB010BD30
:102110003001002010B5144886B01249016040F229
:10212000CF210024C0E9011440F2E731C0E90314D3
:102130008461FFF7FEFA00B1FEE74FF48050009093
:1021400069460948FFF744FB00B1FEE7049404A97F
:1021500005480594FFF7C5FA002800D0FEE706B051
:1021600010BD00000004004070010020FEE7704731
:102170000907090E002806DA00F00F0000F1E02040
:1021800080F8141D704700F1E02080F800147047BB
:10219000704700000248006802490862704700006A
:1021A000242C0140140000207047000070B52C4C16
:1021B0000025E17011B102294FD138E0A58003E07C
:1021C000642A4AD8521CA280A288815C0A29F7D1CD
:1021D00091B2491C8AB2014632232248FFF724FEFD
:1021E0000520FEF719FD4FF47A7332221E491D486F
:1021F000FFF7BEFD50B1E088142801D9E5802CE03E
:102200000520FEF709FDE188491CE1801648A288F7
:1022100081188B784F2B02D1C9784B2903D0805C71
:102220003E2802D019E0002070BD022070BDA580BC
:102230004FF4FA7303E099420FD8491CA180A1889A
:10224000425C0A2AF7D189B2491E8AB20146054882
:10225000FFF7EAFD6420FEF7DFFC012070BD0000FF
:1022600082000020B00100208602002010B5FEF799
:10227000E9FDBDE81040FFF72EBA30B595B0012159
:102280000804CDE900100025029502240491CDE94F
:1022900007404FF4E01009906846FFF779F800B165
:1022A000FEE70AA90F2081E831004FF48060CDE9F4
:1022B0000D0502210AA8FEF765FF00B1FEE74FF405
:1022C000004011900F940FA8FEF7E6FE00B1FEE764
:1022D000FFF702F84FF47A71B0FBF1F0FFF7E7F97E
:1022E0000420FFF7D7F900221146501EFEF738FEF2
:1022F00015B030BD0D48016841F001010160416831
:102300000B4A1140416001680A4A114001600168AE
:1023100021F480210160416821F4FE0141604FF405
:102320001F0181600449C00308607047001002402B
:102330000000FFF8FFFFF6FE08ED00E010B500F02A
:1023400065FBBDE810400148FFF743BB700100206A
:10235000F0B502681C4B1D4D1D4E1E4F1E4C4FF01C
:10236000804C984209D0A04207D0604505D0A842D1
:1023700003D0B04201D0B84204D122F0700E4A68B6
:1023800042EA0E02984209D0A04207D0604505D02B
:10239000A84203D0B04201D0B84203D122F4407524
:1023A000CA682A4322F080054A692A4302608A6883
:1023B000C2620A688262984201D0A04201D10969D2
:1023C000016301214161F0BD002C01400004004087
:1023D00000080040000C00400034014010B501230B
:1023E000046A8B409C430462036A8A40134303627D
:1023F00010BD10B5846842EA032224F47F440A43E6
:102400002243826010BD826822F070020A4342F0CB
:102410000701816070470000F0B5026A22F00102F6
:102420000262036A42688469124E24F073050C68E4
:102430002C4323F002058B682B430D4DA84201D09D
:10244000B04205D123F00807CB683B4323F00403D7
:10245000A84201D0B04205D14D6922F44072154323
:102460008A692A4342608461496841630362F0BD1E
:10247000002C014000340140F0B5026A22F0100245
:102480000262026A436884690D6824F4E64444EAFF
:1024900005248D6822F0200242EA05120F4D104EED
:1024A000A84201D0B04206D1CF6822F0800242EAB1
:1024B000071222F04002A84201D0B04207D14D6974
:1024C00023F4406343EA85038D6943EA850343604F
:1024D0008461496881630262F0BD0000002C014004
:1024E00000340140F0B5026A22F480720262026A8E
:1024F0004368C46922F4007224F073050C68124E1C
:102500002C438D6842EA05220E4DA84201D0B0420C
:1025100006D1CF6822F4006242EA072222F48062E8
:10252000A84201D0B04207D14D6923F4405343EA99
:1025300005138D6943EA05134360C4614968C163AB
:102540000262F0BD002C01400034014030B5026A47
:1025500022F480520262046A4268C3690D6823F45F
:10256000E64343EA05238D6824F4005444EA053425
:10257000084DA84202D0084DA84204D14D6922F46A
:10258000804242EA85124260C36149680164046284
:1025900030BD0000002C01400034014010B5036A3A
:1025A000046A24F001040462846924F0F00444EA1B
:1025B000021423F00A020A438461026210BD10B5BE
:1025C000036A23F0100303628369046A23F47043EF
:1025D00043EA023224F0A00343EA0111826101625E
:1025E00010BD00002DE9F041044600680169E26871
:1025F00021F44051114301612169A06808436169D8
:1026000008432168CA6841F20C639A430243CA60D6
:1026100020684169A26921F44071114341614C492C
:1026200020686425322688423CD1FEF76BFE00EB21
:10263000C00101EB001061688900B0FBF1F7FEF703
:1026400061FE00EBC00101EB00106168B04689003B
:10265000B0FBF1F0B0FBF5F06FF01801484307EB69
:10266000800106EB0110B0FBF5F000F0F006FEF77C
:1026700049FE00EBC00101EB001061688900B0FB6E
:10268000F1F0B0FBF5F006EB0016FEF73BFE00EBB9
:10269000C00101EB001061688900B0FBF1F7FEF7A3
:1026A00031FE3BE0FEF71EFE00EBC00101EB001027
:1026B00061688900B0FBF1F7FEF714FE00EBC00182
:1026C00001EB00106168B0468900B0FBF1F0B0FB8F
:1026D000F5F06FF01801484307EB800106EB01109D
:1026E000B0FBF5F000F0F006FEF7FCFD00EBC001DA
:1026F00001EB001061688900B0FBF1F0B0FBF5F070
:1027000006EB0016FEF7EEFD00EBC00101EB00103A
:1027100061688900B0FBF1F7FEF7E4FD00EBC00152
:1027200001EB001061688900B0FBF1F0B0FBF5F03F
:102730006FF01801484307EB800108EB0110B0FB74
:10274000F5F0216800F00F0030448860BDE8F081AA
:10275000003801402DE9F041984617460E460446E0
:10276000069D1DE0681C1BD02DB1FEF765FBA0EB9C
:102770000800A84214D92068C16821F4D071C16052
:102780002068416921F001014161202084F839006D
:1027900084F83A00002084F838000320BDE8F08176
:1027A0002068006836EA000004D00020B842D9D082
:1027B0000020F3E70120F9E7FEE7000070B54820AC
:1027C00000F006FA4FF4C8752846FEF725FA324C99
:1027D00004212046FEF726FB2846FEF71DFA0421B9
:1027E0002046FEF71FFBC820FEF716FA04212046FC
:1027F000FEF718FB012208212848FEF717FB1821D5
:102800002748FFF7CBF800212648FFF72DFA264886
:10281000FEF7D2FF06E004212046FEF703FBC820A6
:10282000FEF7FAF9FDF7C8FE0028F4D1642314225C
:102830001E491F48FFF7F8FA1E211E48FDF79BFCB2
:102840004FF4967423461E221A491948FFF790FA4E
:102850001E211848FDF78FFC1449642314221431FB
:102860001348FFF7E1FA23461E2212491048FFF7EA
:102870007FFA1E210F48FDF77EFC0C4964231422C9
:1028800028310B48FFF7D0FA2346BDE870401E22DE
:1028900008490748FFF76CBA0014014000080140DE
:1028A000F0000020300100207001002046000020D0
:1028B000B0010020F001002070B53F4C0A21012634
:1028C00020780025B0FBF1F201FB1200B0B9A11C89
:1028D000481EFDF7ACFE607828280ED9A0880A288B
:1028E00007D136A0FDF7BCFD0320FDF71DFEE67005
:1028F000A580A088401CA08000E0A5800520FEF7F0
:102900008BF92078401CC0B22070142804D12570A7
:1029100004213A48FEF786FA3948FEF71DF93221BC
:102920003748FEF781F83648FDF7BAFF800519D51C
:102930003348FDF7B7FF80B26081B0F57A7F10D9D8
:10294000E0880A2809D1A6802E48FDF789FD0420D9
:10295000FDF7EAFDE670E580A580E088401CE08098
:1029600000E0E5802848FEF7F7F832212648FEF718
:102970005BF82548FDF794FF800519D52248FDF73F
:1029800091FF80B2A081B0F5966F10D920890A28F6
:1029900009D1A6801B48FDF763FD0420FDF7C4FDA7
:1029A000E6702581A5802089401C208100E02581DA
:1029B000BDE87040FDF784BE380000205369722CDA
:1029C000796F75206D617920686176652061206678
:1029D00069726520696E20796F757220686F6D6508
:1029E0002E706C6561736520676F20686F6D652060
:1029F00068757272792E200A0000000000140140F0
:102A000090000020782D0008C000002010B5FFF7CE
:102A1000C1FB0849086008480078012805D0002853
:102A200007D1BDE8104000F07BB9BDE8104000F0D0
:102A30005BB910BD140000203B0000200FB4054B13
:102A400010B503A9044A029800F018F810BC5DF80C
:102A500014FB0000192C00088C00002002E008C8BC
:102A6000121F08C1002AFAD170477047002001E008
:102A700001C1121F002AFBD1704700002DE9FF4F52
:102A800089B09B460446002506E025280BD05A460F
:102A90000B999047641C6D1C20780028F5D10DB06F
:102AA0002846BDE8F08F0027B8460122474900E0DC
:102AB000074314F8013F203B02FA03F00842F7D124
:102AC00020782E2819D114F8010F47F004072A287E
:102AD0000ED06FF02F022078A0F1300109290CD818
:102AE00008EB880102EB410100EB0108641CF2E7EE
:102AF0000A98641C50F8048B0A9020780028CED0E5
:102B0000642808D0692806D075281ED05A460B992B
:102B100090476D1C58E00A994FF00A0901C90A91C3
:102B2000002802DA40422D2102E0390504D52B218C
:102B30008DF82010012103E0F90704D02021F7E7E8
:102B40008A4608AE0DE00021FAE70A994FF00A091B
:102B500001C90A91F7E74946FDF7C4FB303106F891
:102B6000011D0028F7D1ADEB060000F12009780720
:102B700001D44FF00108C84502DDA8EB090000E0D0
:102B800000208046002706E008A85A46C05D0B9941
:102B900090476D1C7F1C5745F6DB04E030205A46F9
:102BA0000B9990476D1CB8F10001A8F10108F5DC04
:102BB00005E016F8010B5A460B9990476D1CB9F1C8
:102BC0000001A9F10109F4DC641C65E70928010092
:102BD00010B504460420FEF75DFD0148046010BDF9
:102BE0001000002070B54FF0E0240022656909490B
:102BF000A36909684843A1699942FCD002D2A3EBBA
:102C0000010302E0A5EB010633441A440B4682425D
:102C1000F1D370BD1000002000B50346C0B20249D8
:102C200000F096F8184600BDB00100202DE9F041F3
:102C3000164C0D1AE0694619E661A069281AFDF7DD
:102C40002FFB2169FDF7FAFA07463046FDF728FB0E
:102C5000A168FDF7F3FA06462846FDF721FBE16877
:102C6000FDF7ECFA3146FDF791FA3946FDF78EFA99
:102C7000FDF71FFB42F22831884201DD084602E0E1
:102C8000002800DA4042A561BDE8F0811400002070
:102C9000FEF7E0F8FFF7F1FAFFF768F9114810497D
:102CA0000C2201604FF41651416000218160C16027
:102CB000C0E904128161C161FEF7F4FF00B1FEE7D3
:102CC000FFF710F9FFF730F9FFF7BAF9FFF7E6F968
:102CD000FFF720FAFFF772FDFFF7EEFDFCE70000BB
:102CE00000380140B001002010B50B4C00224FF419
:102CF00080512046FEF79AF8012251032046FEF744
:102D000095F8064C4FF448712068FFF78FFF60601C
:102D100000F006F8002010BD000C01401400002057
:102D200000B587B06021CDE9001000200290024676
:102D3000049069460548FEF712FF00210348FEF79C
:102D400093FF002800D0012007B000BD3001002013
:102D500009680A68D2431206FBD448607047000035
:102D6000000000000000010203040607080900003B
:102D700000000102030400005369722C746865208E
:102D8000676173206D6179206E6F742062652074B5
:102D900075726E6564206F666620696E20796F7546
:102DA0007220686F7573652E706C6561736520673E
:102DB0006F20686F6D652068757272792E200A0029
:102DC000E02D000800000020900000005C2A0008B0
:102DD000702E000890000020F00B00006C2A000804
:102DE00001000000100000000000000000A24A04E2
:102DF00000000000000000000000000000000000D3
:102E00000000C842000000000000000000000000B8
:102E100000000000000000000000000000000000B2
:102E200000000000000041542B434D47463D310D4A
:102E30000A00000000000000000041542B435343EF
:102E4000533D2247534D220D0A000000000041541B
:102E50002B434E4D493D322C310D0A00000000003D
:102E600000001A0100000000000000000000000047
:0400000508000131BD
:00000001FF
